{
  "_format": "hh-sol-artifact-1",
  "contractName": "TestContract",
  "sourceName": "contracts/TestContract.sol",
  "abi": [
    {
      "inputs": [],
      "stateMutability": "nonpayable",
      "type": "constructor"
    },
    {
      "inputs": [
        {
          "internalType": "uint256",
          "name": "_date",
          "type": "uint256"
        },
        {
          "internalType": "uint8",
          "name": "_moodId",
          "type": "uint8"
        },
        {
          "internalType": "address",
          "name": "_userAddress",
          "type": "address"
        }
      ],
      "name": "addMood",
      "outputs": [],
      "stateMutability": "nonpayable",
      "type": "function"
    },
    {
      "inputs": [
        {
          "internalType": "address",
          "name": "",
          "type": "address"
        }
      ],
      "name": "users",
      "outputs": [
        {
          "internalType": "address",
          "name": "userAddress",
          "type": "address"
        }
      ],
      "stateMutability": "view",
      "type": "function"
    },
    {
      "inputs": [
        {
          "internalType": "uint256",
          "name": "_date",
          "type": "uint256"
        },
        {
          "internalType": "address",
          "name": "_userAddress",
          "type": "address"
        }
      ],
      "name": "viewMood",
      "outputs": [
        {
          "internalType": "uint8",
          "name": "",
          "type": "uint8"
        }
      ],
      "stateMutability": "view",
      "type": "function"
    }
  ],
  "bytecode": "0x608060405234801561001057600080fd5b50336000806101000a81548173ffffffffffffffffffffffffffffffffffffffff021916908373ffffffffffffffffffffffffffffffffffffffff160217905550610415806100606000396000f3fe608060405234801561001057600080fd5b50600436106100415760003560e01c8063351ec51a14610046578063a87430ba14610076578063f5a38513146100a6575b600080fd5b610060600480360381019061005b9190610272565b6100c2565b60405161006d9190610336565b60405180910390f35b610090600480360381019061008b9190610249565b610135565b60405161009d919061031b565b60405180910390f35b6100c060048036038101906100bb91906102ae565b610173565b005b600080600160008473ffffffffffffffffffffffffffffffffffffffff1673ffffffffffffffffffffffffffffffffffffffff168152602001908152602001600020905080600101600085815260200190815260200160002060010160009054906101000a900460ff1691505092915050565b60016020528060005260406000206000915090508060000160009054906101000a900473ffffffffffffffffffffffffffffffffffffffff16905081565b6000600160008373ffffffffffffffffffffffffffffffffffffffff1673ffffffffffffffffffffffffffffffffffffffff168152602001908152602001600020905083816001016000868152602001908152602001600020600001819055508281600101600086815260200190815260200160002060010160006101000a81548160ff021916908360ff16021790555050505050565b6000813590506102198161039a565b92915050565b60008135905061022e816103b1565b92915050565b600081359050610243816103c8565b92915050565b60006020828403121561025b57600080fd5b60006102698482850161020a565b91505092915050565b6000806040838503121561028557600080fd5b60006102938582860161021f565b92505060206102a48582860161020a565b9150509250929050565b6000806000606084860312156102c357600080fd5b60006102d18682870161021f565b93505060206102e286828701610234565b92505060406102f38682870161020a565b9150509250925092565b61030681610351565b82525050565b6103158161038d565b82525050565b600060208201905061033060008301846102fd565b92915050565b600060208201905061034b600083018461030c565b92915050565b600061035c82610363565b9050919050565b600073ffffffffffffffffffffffffffffffffffffffff82169050919050565b6000819050919050565b600060ff82169050919050565b6103a381610351565b81146103ae57600080fd5b50565b6103ba81610383565b81146103c557600080fd5b50565b6103d18161038d565b81146103dc57600080fd5b5056fea2646970667358221220dc3f7af1eb8e1efc051ad848f109f5b4524c7e01c96d6079f9b274cd23fec00364736f6c63430008040033",
  "linkReferences": {},
  "deployedLinkReferences": {}
}