{
  "_format": "hh-sol-artifact-1",
  "contractName": "upgradeCard",
  "sourceName": "contracts/UpgradeCard.sol",
  "abi": [
    {
      "inputs": [],
      "stateMutability": "nonpayable",
      "type": "constructor"
    },
    {
      "inputs": [
        {
          "internalType": "string",
          "name": "_name",
          "type": "string"
        },
        {
          "internalType": "uint256",
          "name": "_price",
          "type": "uint256"
        },
        {
          "internalType": "uint256",
          "name": "_lifeSpan",
          "type": "uint256"
        }
      ],
      "name": "addCard",
      "outputs": [],
      "stateMutability": "nonpayable",
      "type": "function"
    },
    {
      "inputs": [
        {
          "internalType": "uint256",
          "name": "",
          "type": "uint256"
        }
      ],
      "name": "cards",
      "outputs": [
        {
          "internalType": "string",
          "name": "name",
          "type": "string"
        },
        {
          "internalType": "uint256",
          "name": "price",
          "type": "uint256"
        },
        {
          "internalType": "uint256",
          "name": "lifeSpan",
          "type": "uint256"
        }
      ],
      "stateMutability": "view",
      "type": "function"
    },
    {
      "inputs": [
        {
          "internalType": "address",
          "name": "_userAddress",
          "type": "address"
        },
        {
          "internalType": "uint256",
          "name": "_id",
          "type": "uint256"
        }
      ],
      "name": "checkPurchase",
      "outputs": [
        {
          "internalType": "bool",
          "name": "",
          "type": "bool"
        }
      ],
      "stateMutability": "view",
      "type": "function"
    },
    {
      "inputs": [
        {
          "internalType": "uint256",
          "name": "_id",
          "type": "uint256"
        }
      ],
      "name": "deleteCard",
      "outputs": [],
      "stateMutability": "nonpayable",
      "type": "function"
    },
    {
      "inputs": [
        {
          "internalType": "address",
          "name": "_userAddress",
          "type": "address"
        },
        {
          "internalType": "uint256",
          "name": "_id",
          "type": "uint256"
        }
      ],
      "name": "purchaseCard",
      "outputs": [],
      "stateMutability": "nonpayable",
      "type": "function"
    },
    {
      "inputs": [
        {
          "internalType": "address",
          "name": "_userAddress",
          "type": "address"
        },
        {
          "internalType": "uint256",
          "name": "_id",
          "type": "uint256"
        }
      ],
      "name": "removeCard",
      "outputs": [],
      "stateMutability": "nonpayable",
      "type": "function"
    },
    {
      "inputs": [
        {
          "internalType": "address",
          "name": "_userAddress",
          "type": "address"
        },
        {
          "internalType": "uint256",
          "name": "_id",
          "type": "uint256"
        }
      ],
      "name": "showPurchaseDate",
      "outputs": [
        {
          "internalType": "uint256",
          "name": "",
          "type": "uint256"
        }
      ],
      "stateMutability": "view",
      "type": "function"
    },
    {
      "inputs": [
        {
          "internalType": "address",
          "name": "_userAddress",
          "type": "address"
        }
      ],
      "name": "showUsing",
      "outputs": [
        {
          "internalType": "uint256",
          "name": "",
          "type": "uint256"
        }
      ],
      "stateMutability": "view",
      "type": "function"
    },
    {
      "inputs": [
        {
          "internalType": "address",
          "name": "_userAddress",
          "type": "address"
        },
        {
          "internalType": "uint256",
          "name": "_id",
          "type": "uint256"
        }
      ],
      "name": "switchCard",
      "outputs": [],
      "stateMutability": "nonpayable",
      "type": "function"
    },
    {
      "inputs": [],
      "name": "types",
      "outputs": [
        {
          "internalType": "uint256",
          "name": "",
          "type": "uint256"
        }
      ],
      "stateMutability": "view",
      "type": "function"
    }
  ],
  "bytecode": "0x60806040523480156200001157600080fd5b50336000806101000a81548173ffffffffffffffffffffffffffffffffffffffff021916908373ffffffffffffffffffffffffffffffffffffffff1602179055506000600281905550620000a36040518060400160405280600581526020017f4261736963000000000000000000000000000000000000000000000000000000815250600080620000a960201b60201c565b620003bf565b60008054906101000a900473ffffffffffffffffffffffffffffffffffffffff1673ffffffffffffffffffffffffffffffffffffffff163373ffffffffffffffffffffffffffffffffffffffff16146200013a576040517f08c379a0000000000000000000000000000000000000000000000000000000008152600401620001319062000277565b60405180910390fd5b60006001600060025481526020019081526020016000209050838160000190805190602001906200016d929190620001a0565b50828160010181905550818160020181905550600260008154809291906200019590620002ea565b919050555050505050565b828054620001ae90620002b4565b90600052602060002090601f016020900481019282620001d257600085556200021e565b82601f10620001ed57805160ff19168380011785556200021e565b828001600101855582156200021e579182015b828111156200021d57825182559160200191906001019062000200565b5b5090506200022d919062000231565b5090565b5b808211156200024c57600081600090555060010162000232565b5090565b60006200025f60138362000299565b91506200026c8262000396565b602082019050919050565b60006020820190508181036000830152620002928162000250565b9050919050565b600082825260208201905092915050565b6000819050919050565b60006002820490506001821680620002cd57607f821691505b60208210811415620002e457620002e362000367565b5b50919050565b6000620002f782620002aa565b91507fffffffffffffffffffffffffffffffffffffffffffffffffffffffffffffffff8214156200032d576200032c62000338565b5b600182019050919050565b7f4e487b7100000000000000000000000000000000000000000000000000000000600052601160045260246000fd5b7f4e487b7100000000000000000000000000000000000000000000000000000000600052602260045260246000fd5b7f43616c6c6572206973206e6f74206f776e657200000000000000000000000000600082015250565b61128d80620003cf6000396000f3fe608060405234801561001057600080fd5b506004361061009e5760003560e01c80638dc10768116100665780638dc1076814610157578063b000741f14610189578063ccbff979146101b9578063ce841a05146101d7578063e48c065b146101f35761009e565b80631fadffb0146100a35780632344185c146100d35780635e1acf65146100ef5780636131e3ff1461010b57806366bce96114610127575b600080fd5b6100bd60048036038101906100b89190610c81565b61020f565b6040516100ca9190610eef565b60405180910390f35b6100ed60048036038101906100e89190610caa565b6102c2565b005b61010960048036038101906101049190610d4d565b610435565b005b61012560048036038101906101209190610caa565b610564565b005b610141600480360381019061013c9190610caa565b61061f565b60405161014e9190610e36565b60405180910390f35b610171600480360381019061016c9190610d4d565b610768565b60405161018093929190610e51565b60405180910390f35b6101a3600480360381019061019e9190610caa565b61081a565b6040516101b09190610eef565b60405180910390f35b6101c1610893565b6040516101ce9190610eef565b60405180910390f35b6101f160048036038101906101ec9190610caa565b610899565b005b61020d60048036038101906102089190610ce6565b610a1c565b005b600080600190505b60025481116102b7576001600082815260200190815260200160002060030160008473ffffffffffffffffffffffffffffffffffffffff1673ffffffffffffffffffffffffffffffffffffffff16815260200190815260200160002060010160009054906101000a900460ff1680156102965750610295838261061f565b5b156102a457809150506102bd565b80806102af906110c7565b915050610217565b50600090505b919050565b8060001080156102d3575060025481105b610312576040517f08c379a000000000000000000000000000000000000000000000000000000000815260040161030990610ecf565b60405180910390fd5b61031c828261061f565b61035b576040517f08c379a000000000000000000000000000000000000000000000000000000000815260040161035290610e8f565b60405180910390fd5b60006001600083815260200190815260200160002060030160008473ffffffffffffffffffffffffffffffffffffffff1673ffffffffffffffffffffffffffffffffffffffff1681526020019081526020016000206000018190555060006001600083815260200190815260200160002060030160008473ffffffffffffffffffffffffffffffffffffffff1673ffffffffffffffffffffffffffffffffffffffff16815260200190815260200160002060010160006101000a81548160ff021916908315150217905550610431826000610899565b5050565b60008054906101000a900473ffffffffffffffffffffffffffffffffffffffff1673ffffffffffffffffffffffffffffffffffffffff163373ffffffffffffffffffffffffffffffffffffffff16146104c3576040517f08c379a00000000000000000000000000000000000000000000000000000000081526004016104ba90610eaf565b60405180910390fd5b8060001080156104d4575060025481105b610513576040517f08c379a000000000000000000000000000000000000000000000000000000000815260040161050a90610ecf565b60405180910390fd5b60016000828152602001908152602001600020600080820160006105379190610b0c565b6001820160009055600282016000905550506002600081548092919061055c9061103a565b919050555050565b806000108015610575575060025481105b6105b4576040517f08c379a00000000000000000000000000000000000000000000000000000000081526004016105ab90610ecf565b60405180910390fd5b6028426105c19190610f7c565b6001600083815260200190815260200160002060030160008473ffffffffffffffffffffffffffffffffffffffff1673ffffffffffffffffffffffffffffffffffffffff168152602001908152602001600020600001819055505050565b600060025482106106335760009050610762565b6000600160008481526020019081526020016000206002015414156106e55760006001600084815260200190815260200160002060030160008573ffffffffffffffffffffffffffffffffffffffff1673ffffffffffffffffffffffffffffffffffffffff168152602001908152602001600020600001541415806106ce575060006001600084815260200190815260200160002060010154145b156106dc5760019050610762565b60009050610762565b6001600083815260200190815260200160002060020154426107079190610f7c565b6001600084815260200190815260200160002060030160008573ffffffffffffffffffffffffffffffffffffffff1673ffffffffffffffffffffffffffffffffffffffff168152602001908152602001600020600001541190505b92915050565b600160205280600052604060002060009150905080600001805461078b90611064565b80601f01602080910402602001604051908101604052809291908181526020018280546107b790611064565b80156108045780601f106107d957610100808354040283529160200191610804565b820191906000526020600020905b8154815290600101906020018083116107e757829003601f168201915b5050505050908060010154908060020154905083565b6000610826838361061f565b610833576000905061088d565b6001600083815260200190815260200160002060030160008473ffffffffffffffffffffffffffffffffffffffff1673ffffffffffffffffffffffffffffffffffffffff1681526020019081526020016000206000015490505b92915050565b60025481565b806000111580156108ab575060025481105b6108ea576040517f08c379a00000000000000000000000000000000000000000000000000000000081526004016108e190610ecf565b60405180910390fd5b6108f4828261061f565b610933576040517f08c379a000000000000000000000000000000000000000000000000000000000815260040161092a90610e8f565b60405180910390fd5b6000600160006109428561020f565b815260200190815260200160002060030160008473ffffffffffffffffffffffffffffffffffffffff1673ffffffffffffffffffffffffffffffffffffffff16815260200190815260200160002060010160006101000a81548160ff021916908315150217905550600180600083815260200190815260200160002060030160008473ffffffffffffffffffffffffffffffffffffffff1673ffffffffffffffffffffffffffffffffffffffff16815260200190815260200160002060010160006101000a81548160ff0219169083151502179055505050565b60008054906101000a900473ffffffffffffffffffffffffffffffffffffffff1673ffffffffffffffffffffffffffffffffffffffff163373ffffffffffffffffffffffffffffffffffffffff1614610aaa576040517f08c379a0000000000000000000000000000000000000000000000000000000008152600401610aa190610eaf565b60405180910390fd5b6000600160006002548152602001908152602001600020905083816000019080519060200190610adb929190610b4c565b5082816001018190555081816002018190555060026000815480929190610b01906110c7565b919050555050505050565b508054610b1890611064565b6000825580601f10610b2a5750610b49565b601f016020900490600052602060002090810190610b489190610bd2565b5b50565b828054610b5890611064565b90600052602060002090601f016020900481019282610b7a5760008555610bc1565b82601f10610b9357805160ff1916838001178555610bc1565b82800160010185558215610bc1579182015b82811115610bc0578251825591602001919060010190610ba5565b5b509050610bce9190610bd2565b5090565b5b80821115610beb576000816000905550600101610bd3565b5090565b6000610c02610bfd84610f2f565b610f0a565b905082815260208101848484011115610c1a57600080fd5b610c25848285610ff8565b509392505050565b600081359050610c3c81611229565b92915050565b600082601f830112610c5357600080fd5b8135610c63848260208601610bef565b91505092915050565b600081359050610c7b81611240565b92915050565b600060208284031215610c9357600080fd5b6000610ca184828501610c2d565b91505092915050565b60008060408385031215610cbd57600080fd5b6000610ccb85828601610c2d565b9250506020610cdc85828601610c6c565b9150509250929050565b600080600060608486031215610cfb57600080fd5b600084013567ffffffffffffffff811115610d1557600080fd5b610d2186828701610c42565b9350506020610d3286828701610c6c565b9250506040610d4386828701610c6c565b9150509250925092565b600060208284031215610d5f57600080fd5b6000610d6d84828501610c6c565b91505092915050565b610d7f81610fc2565b82525050565b6000610d9082610f60565b610d9a8185610f6b565b9350610daa818560208601611007565b610db38161119d565b840191505092915050565b6000610dcb601083610f6b565b9150610dd6826111ae565b602082019050919050565b6000610dee601383610f6b565b9150610df9826111d7565b602082019050919050565b6000610e11601383610f6b565b9150610e1c82611200565b602082019050919050565b610e3081610fee565b82525050565b6000602082019050610e4b6000830184610d76565b92915050565b60006060820190508181036000830152610e6b8186610d85565b9050610e7a6020830185610e27565b610e876040830184610e27565b949350505050565b60006020820190508181036000830152610ea881610dbe565b9050919050565b60006020820190508181036000830152610ec881610de1565b9050919050565b60006020820190508181036000830152610ee881610e04565b9050919050565b6000602082019050610f046000830184610e27565b92915050565b6000610f14610f25565b9050610f208282611096565b919050565b6000604051905090565b600067ffffffffffffffff821115610f4a57610f4961116e565b5b610f538261119d565b9050602081019050919050565b600081519050919050565b600082825260208201905092915050565b6000610f8782610fee565b9150610f9283610fee565b925082821015610fa557610fa4611110565b5b828203905092915050565b6000610fbb82610fce565b9050919050565b60008115159050919050565b600073ffffffffffffffffffffffffffffffffffffffff82169050919050565b6000819050919050565b82818337600083830152505050565b60005b8381101561102557808201518184015260208101905061100a565b83811115611034576000848401525b50505050565b600061104582610fee565b9150600082141561105957611058611110565b5b600182039050919050565b6000600282049050600182168061107c57607f821691505b602082108114156110905761108f61113f565b5b50919050565b61109f8261119d565b810181811067ffffffffffffffff821117156110be576110bd61116e565b5b80604052505050565b60006110d282610fee565b91507fffffffffffffffffffffffffffffffffffffffffffffffffffffffffffffffff82141561110557611104611110565b5b600182019050919050565b7f4e487b7100000000000000000000000000000000000000000000000000000000600052601160045260246000fd5b7f4e487b7100000000000000000000000000000000000000000000000000000000600052602260045260246000fd5b7f4e487b7100000000000000000000000000000000000000000000000000000000600052604160045260246000fd5b6000601f19601f8301169050919050565b7f4e6f742070757263686173652079657400000000000000000000000000000000600082015250565b7f43616c6c6572206973206e6f74206f776e657200000000000000000000000000600082015250565b7f4361726420646f6573206e6f7420657869737400000000000000000000000000600082015250565b61123281610fb0565b811461123d57600080fd5b50565b61124981610fee565b811461125457600080fd5b5056fea2646970667358221220c5eeab53aefcc4c3228ddb780f372830025b3058116817dee7f725123dd108dc64736f6c63430008040033",
  "linkReferences": {},
  "deployedLinkReferences": {}
}